{
  "contractName": "Rental",
  "abi": [
    {
      "constant": true,
      "inputs": [
        {
          "name": "",
          "type": "uint256"
        }
      ],
      "name": "rentals",
      "outputs": [
        {
          "name": "",
          "type": "address"
        }
      ],
      "payable": false,
      "stateMutability": "view",
      "type": "function"
    },
    {
      "constant": false,
      "inputs": [
        {
          "name": "rentalId",
          "type": "uint256"
        }
      ],
      "name": "rent",
      "outputs": [
        {
          "name": "",
          "type": "uint256"
        }
      ],
      "payable": false,
      "stateMutability": "nonpayable",
      "type": "function"
    },
    {
      "constant": true,
      "inputs": [],
      "name": "getRentals",
      "outputs": [
        {
          "name": "",
          "type": "address[16]"
        }
      ],
      "payable": false,
      "stateMutability": "view",
      "type": "function"
    }
  ],
  "bytecode": "0x6060604052341561000f57600080fd5b6102db8061001e6000396000f300606060405260043610610057576000357c0100000000000000000000000000000000000000000000000000000000900463ffffffff1680635ea5da201461005c5780637456be7d146100ad578063af94a1d1146100e4575b600080fd5b341561006757600080fd5b61006f610147565b6040518082601060200280838360005b8381101561009a57808201518184015260208101905061007f565b5050505090500191505060405180910390f35b34156100b857600080fd5b6100ce60048080359060200190919050506101c8565b6040518082815260200191505060405180910390f35b34156100ef57600080fd5b610105600480803590602001909190505061023b565b604051808273ffffffffffffffffffffffffffffffffffffffff1673ffffffffffffffffffffffffffffffffffffffff16815260200191505060405180910390f35b61014f610270565b60006010806020026040519081016040528092919082601080156101be576020028201915b8160009054906101000a900473ffffffffffffffffffffffffffffffffffffffff1673ffffffffffffffffffffffffffffffffffffffff1681526020019060010190808311610174575b5050505050905090565b600080821180156101d95750600f82105b15156101e457600080fd5b336000836010811015156101f457fe5b0160006101000a81548173ffffffffffffffffffffffffffffffffffffffff021916908373ffffffffffffffffffffffffffffffffffffffff160217905550819050919050565b60008160108110151561024a57fe5b016000915054906101000a900473ffffffffffffffffffffffffffffffffffffffff1681565b610200604051908101604052806010905b600073ffffffffffffffffffffffffffffffffffffffff1681526020019060019003908161028157905050905600a165627a7a72305820ac01d38efe982c2741ed7f6a9ee5f5582c2a33a6db8b35b83e5f09803b5b7dbd0029",
  "source": "pragma solidity ^0.4.18;\n\ncontract Rental {\n    address[16] public rentals;\n\n    // Rent a car\n    function rent(uint rentalId) public returns (uint) {\n        require(rentalId > 0 && rentalId < 15);\n        rentals[rentalId] = msg.sender;\n\n        return rentalId;\n    }\n\n    // Retrieve all rentals\n    function getRentals() public view returns (address[16]) {\n        return rentals;\n    }\n\n    \n}",
  "sourcePath": "/Users/will/clients/caster/rental_dapp/contracts/Rental.sol",
  "compiler": {
    "name": "solc",
    "version": "0.4.19+commit.c4cbbb05.Emscripten.clang"
  },
  "schemaVersion": "2.0.0",
  "updatedAt": "2018-04-09T11:27:01.925Z"
}